{
  "_format": "hh-sol-artifact-1",
  "contractName": "FootballTicketBooking",
  "sourceName": "contracts/TicketingFootball.sol",
  "abi": [
    {
      "inputs": [],
      "stateMutability": "nonpayable",
      "type": "constructor"
    },
    {
      "inputs": [
        {
          "internalType": "address",
          "name": "sender",
          "type": "address"
        },
        {
          "internalType": "uint256",
          "name": "tokenId",
          "type": "uint256"
        },
        {
          "internalType": "address",
          "name": "owner",
          "type": "address"
        }
      ],
      "name": "ERC721IncorrectOwner",
      "type": "error"
    },
    {
      "inputs": [
        {
          "internalType": "address",
          "name": "operator",
          "type": "address"
        },
        {
          "internalType": "uint256",
          "name": "tokenId",
          "type": "uint256"
        }
      ],
      "name": "ERC721InsufficientApproval",
      "type": "error"
    },
    {
      "inputs": [
        {
          "internalType": "address",
          "name": "approver",
          "type": "address"
        }
      ],
      "name": "ERC721InvalidApprover",
      "type": "error"
    },
    {
      "inputs": [
        {
          "internalType": "address",
          "name": "operator",
          "type": "address"
        }
      ],
      "name": "ERC721InvalidOperator",
      "type": "error"
    },
    {
      "inputs": [
        {
          "internalType": "address",
          "name": "owner",
          "type": "address"
        }
      ],
      "name": "ERC721InvalidOwner",
      "type": "error"
    },
    {
      "inputs": [
        {
          "internalType": "address",
          "name": "receiver",
          "type": "address"
        }
      ],
      "name": "ERC721InvalidReceiver",
      "type": "error"
    },
    {
      "inputs": [
        {
          "internalType": "address",
          "name": "sender",
          "type": "address"
        }
      ],
      "name": "ERC721InvalidSender",
      "type": "error"
    },
    {
      "inputs": [
        {
          "internalType": "uint256",
          "name": "tokenId",
          "type": "uint256"
        }
      ],
      "name": "ERC721NonexistentToken",
      "type": "error"
    },
    {
      "anonymous": false,
      "inputs": [
        {
          "indexed": true,
          "internalType": "address",
          "name": "owner",
          "type": "address"
        },
        {
          "indexed": true,
          "internalType": "address",
          "name": "approved",
          "type": "address"
        },
        {
          "indexed": true,
          "internalType": "uint256",
          "name": "tokenId",
          "type": "uint256"
        }
      ],
      "name": "Approval",
      "type": "event"
    },
    {
      "anonymous": false,
      "inputs": [
        {
          "indexed": true,
          "internalType": "address",
          "name": "owner",
          "type": "address"
        },
        {
          "indexed": true,
          "internalType": "address",
          "name": "operator",
          "type": "address"
        },
        {
          "indexed": false,
          "internalType": "bool",
          "name": "approved",
          "type": "bool"
        }
      ],
      "name": "ApprovalForAll",
      "type": "event"
    },
    {
      "anonymous": false,
      "inputs": [],
      "name": "ContractPaused",
      "type": "event"
    },
    {
      "anonymous": false,
      "inputs": [],
      "name": "ContractUnpaused",
      "type": "event"
    },
    {
      "anonymous": false,
      "inputs": [
        {
          "indexed": true,
          "internalType": "address",
          "name": "buyer",
          "type": "address"
        },
        {
          "indexed": false,
          "internalType": "uint256",
          "name": "ticketId",
          "type": "uint256"
        },
        {
          "indexed": false,
          "internalType": "uint256",
          "name": "matchId",
          "type": "uint256"
        }
      ],
      "name": "TicketPurchased",
      "type": "event"
    },
    {
      "anonymous": false,
      "inputs": [
        {
          "indexed": false,
          "internalType": "uint256",
          "name": "ticketId",
          "type": "uint256"
        }
      ],
      "name": "TicketUsed",
      "type": "event"
    },
    {
      "anonymous": false,
      "inputs": [
        {
          "indexed": true,
          "internalType": "address",
          "name": "from",
          "type": "address"
        },
        {
          "indexed": true,
          "internalType": "address",
          "name": "to",
          "type": "address"
        },
        {
          "indexed": true,
          "internalType": "uint256",
          "name": "tokenId",
          "type": "uint256"
        }
      ],
      "name": "Transfer",
      "type": "event"
    },
    {
      "inputs": [],
      "name": "MAX_TICKETS",
      "outputs": [
        {
          "internalType": "uint256",
          "name": "",
          "type": "uint256"
        }
      ],
      "stateMutability": "view",
      "type": "function"
    },
    {
      "inputs": [
        {
          "internalType": "uint256",
          "name": "matchId",
          "type": "uint256"
        }
      ],
      "name": "addMatch",
      "outputs": [],
      "stateMutability": "view",
      "type": "function"
    },
    {
      "inputs": [],
      "name": "admin",
      "outputs": [
        {
          "internalType": "address",
          "name": "",
          "type": "address"
        }
      ],
      "stateMutability": "view",
      "type": "function"
    },
    {
      "inputs": [
        {
          "internalType": "address",
          "name": "to",
          "type": "address"
        },
        {
          "internalType": "uint256",
          "name": "tokenId",
          "type": "uint256"
        }
      ],
      "name": "approve",
      "outputs": [],
      "stateMutability": "nonpayable",
      "type": "function"
    },
    {
      "inputs": [
        {
          "internalType": "address",
          "name": "owner",
          "type": "address"
        }
      ],
      "name": "balanceOf",
      "outputs": [
        {
          "internalType": "uint256",
          "name": "",
          "type": "uint256"
        }
      ],
      "stateMutability": "view",
      "type": "function"
    },
    {
      "inputs": [
        {
          "internalType": "uint256",
          "name": "tokenId",
          "type": "uint256"
        }
      ],
      "name": "getApproved",
      "outputs": [
        {
          "internalType": "address",
          "name": "",
          "type": "address"
        }
      ],
      "stateMutability": "view",
      "type": "function"
    },
    {
      "inputs": [],
      "name": "getTicketPrice",
      "outputs": [
        {
          "internalType": "uint256",
          "name": "",
          "type": "uint256"
        }
      ],
      "stateMutability": "view",
      "type": "function"
    },
    {
      "inputs": [
        {
          "internalType": "address",
          "name": "owner",
          "type": "address"
        },
        {
          "internalType": "address",
          "name": "operator",
          "type": "address"
        }
      ],
      "name": "isApprovedForAll",
      "outputs": [
        {
          "internalType": "bool",
          "name": "",
          "type": "bool"
        }
      ],
      "stateMutability": "view",
      "type": "function"
    },
    {
      "inputs": [
        {
          "internalType": "uint256",
          "name": "ticketId",
          "type": "uint256"
        }
      ],
      "name": "isValidTicket",
      "outputs": [
        {
          "internalType": "bool",
          "name": "",
          "type": "bool"
        }
      ],
      "stateMutability": "view",
      "type": "function"
    },
    {
      "inputs": [],
      "name": "name",
      "outputs": [
        {
          "internalType": "string",
          "name": "",
          "type": "string"
        }
      ],
      "stateMutability": "view",
      "type": "function"
    },
    {
      "inputs": [],
      "name": "nextTicketId",
      "outputs": [
        {
          "internalType": "uint256",
          "name": "",
          "type": "uint256"
        }
      ],
      "stateMutability": "view",
      "type": "function"
    },
    {
      "inputs": [
        {
          "internalType": "uint256",
          "name": "tokenId",
          "type": "uint256"
        }
      ],
      "name": "ownerOf",
      "outputs": [
        {
          "internalType": "address",
          "name": "",
          "type": "address"
        }
      ],
      "stateMutability": "view",
      "type": "function"
    },
    {
      "inputs": [],
      "name": "pause",
      "outputs": [],
      "stateMutability": "nonpayable",
      "type": "function"
    },
    {
      "inputs": [],
      "name": "paused",
      "outputs": [
        {
          "internalType": "bool",
          "name": "",
          "type": "bool"
        }
      ],
      "stateMutability": "view",
      "type": "function"
    },
    {
      "inputs": [
        {
          "internalType": "uint256",
          "name": "matchId",
          "type": "uint256"
        }
      ],
      "name": "purchaseTicket",
      "outputs": [],
      "stateMutability": "payable",
      "type": "function"
    },
    {
      "inputs": [
        {
          "internalType": "address",
          "name": "from",
          "type": "address"
        },
        {
          "internalType": "address",
          "name": "to",
          "type": "address"
        },
        {
          "internalType": "uint256",
          "name": "tokenId",
          "type": "uint256"
        }
      ],
      "name": "safeTransferFrom",
      "outputs": [],
      "stateMutability": "nonpayable",
      "type": "function"
    },
    {
      "inputs": [
        {
          "internalType": "address",
          "name": "from",
          "type": "address"
        },
        {
          "internalType": "address",
          "name": "to",
          "type": "address"
        },
        {
          "internalType": "uint256",
          "name": "tokenId",
          "type": "uint256"
        },
        {
          "internalType": "bytes",
          "name": "data",
          "type": "bytes"
        }
      ],
      "name": "safeTransferFrom",
      "outputs": [],
      "stateMutability": "nonpayable",
      "type": "function"
    },
    {
      "inputs": [
        {
          "internalType": "address",
          "name": "operator",
          "type": "address"
        },
        {
          "internalType": "bool",
          "name": "approved",
          "type": "bool"
        }
      ],
      "name": "setApprovalForAll",
      "outputs": [],
      "stateMutability": "nonpayable",
      "type": "function"
    },
    {
      "inputs": [
        {
          "internalType": "uint256",
          "name": "_ticketPrice",
          "type": "uint256"
        }
      ],
      "name": "setTicketPrice",
      "outputs": [],
      "stateMutability": "nonpayable",
      "type": "function"
    },
    {
      "inputs": [
        {
          "internalType": "bytes4",
          "name": "interfaceId",
          "type": "bytes4"
        }
      ],
      "name": "supportsInterface",
      "outputs": [
        {
          "internalType": "bool",
          "name": "",
          "type": "bool"
        }
      ],
      "stateMutability": "view",
      "type": "function"
    },
    {
      "inputs": [],
      "name": "symbol",
      "outputs": [
        {
          "internalType": "string",
          "name": "",
          "type": "string"
        }
      ],
      "stateMutability": "view",
      "type": "function"
    },
    {
      "inputs": [],
      "name": "ticketPrice",
      "outputs": [
        {
          "internalType": "uint256",
          "name": "",
          "type": "uint256"
        }
      ],
      "stateMutability": "view",
      "type": "function"
    },
    {
      "inputs": [
        {
          "internalType": "uint256",
          "name": "",
          "type": "uint256"
        }
      ],
      "name": "tickets",
      "outputs": [
        {
          "internalType": "uint256",
          "name": "matchId",
          "type": "uint256"
        },
        {
          "internalType": "address",
          "name": "owner",
          "type": "address"
        },
        {
          "internalType": "bool",
          "name": "isUsed",
          "type": "bool"
        }
      ],
      "stateMutability": "view",
      "type": "function"
    },
    {
      "inputs": [
        {
          "internalType": "uint256",
          "name": "tokenId",
          "type": "uint256"
        }
      ],
      "name": "tokenURI",
      "outputs": [
        {
          "internalType": "string",
          "name": "",
          "type": "string"
        }
      ],
      "stateMutability": "view",
      "type": "function"
    },
    {
      "inputs": [
        {
          "internalType": "address",
          "name": "from",
          "type": "address"
        },
        {
          "internalType": "address",
          "name": "to",
          "type": "address"
        },
        {
          "internalType": "uint256",
          "name": "tokenId",
          "type": "uint256"
        }
      ],
      "name": "transferFrom",
      "outputs": [],
      "stateMutability": "nonpayable",
      "type": "function"
    },
    {
      "inputs": [],
      "name": "unpause",
      "outputs": [],
      "stateMutability": "nonpayable",
      "type": "function"
    },
    {
      "inputs": [
        {
          "internalType": "uint256",
          "name": "ticketId",
          "type": "uint256"
        }
      ],
      "name": "verifyTicket",
      "outputs": [],
      "stateMutability": "nonpayable",
      "type": "function"
    },
    {
      "inputs": [],
      "name": "withdrawFunds",
      "outputs": [],
      "stateMutability": "nonpayable",
      "type": "function"
    },
    {
      "stateMutability": "payable",
      "type": "receive"
    }
  ],
  "bytecode": "0x608060405266b1a2bc2ec500006007553480156200001c57600080fd5b506040518060400160405280601381526020017f466f6f7462616c6c4d617463685469636b6574000000000000000000000000008152506040518060400160405280600381526020017f464d54000000000000000000000000000000000000000000000000000000000081525081600090816200009a91906200038b565b508060019081620000ac91906200038b565b50505033600860006101000a81548173ffffffffffffffffffffffffffffffffffffffff021916908373ffffffffffffffffffffffffffffffffffffffff1602179055506000600860146101000a81548160ff02191690831515021790555062000472565b600081519050919050565b7f4e487b7100000000000000000000000000000000000000000000000000000000600052604160045260246000fd5b7f4e487b7100000000000000000000000000000000000000000000000000000000600052602260045260246000fd5b600060028204905060018216806200019357607f821691505b602082108103620001a957620001a86200014b565b5b50919050565b60008190508160005260206000209050919050565b60006020601f8301049050919050565b600082821b905092915050565b600060088302620002137fffffffffffffffffffffffffffffffffffffffffffffffffffffffffffffffff82620001d4565b6200021f8683620001d4565b95508019841693508086168417925050509392505050565b6000819050919050565b6000819050919050565b60006200026c62000266620002608462000237565b62000241565b62000237565b9050919050565b6000819050919050565b62000288836200024b565b620002a0620002978262000273565b848454620001e1565b825550505050565b600090565b620002b7620002a8565b620002c48184846200027d565b505050565b5b81811015620002ec57620002e0600082620002ad565b600181019050620002ca565b5050565b601f8211156200033b576200030581620001af565b6200031084620001c4565b8101602085101562000320578190505b620003386200032f85620001c4565b830182620002c9565b50505b505050565b600082821c905092915050565b6000620003606000198460080262000340565b1980831691505092915050565b60006200037b83836200034d565b9150826002028217905092915050565b620003968262000111565b67ffffffffffffffff811115620003b257620003b16200011c565b5b620003be82546200017a565b620003cb828285620002f0565b600060209050601f831160018114620004035760008415620003ee578287015190505b620003fa85826200036d565b8655506200046a565b601f1984166200041386620001af565b60005b828110156200043d5784890151825560018201915060208501945060208101905062000416565b868310156200045d578489015162000459601f8916826200034d565b8355505b6001600288020188555050505b505050505050565b6133a780620004826000396000f3fe6080604052600436106101bb5760003560e01c80636031a52f116100ec578063b88d4fde1161008a578063c87b56dd11610064578063c87b56dd1461061b578063e985e9c514610658578063f851a44014610695578063fca846dc146106c0576101fb565b8063b88d4fde14610599578063b8fab085146105c2578063b948348c146105ff576101fb565b80638456cb59116100c65780638456cb591461050357806387bb7ae01461051a57806395d89b4114610545578063a22cb46514610570576101fb565b80636031a52f1461045e5780636352211e1461048957806370a08231146104c6576101fb565b806324600fc31161015957806350b447121161013357806350b44712146103a257806353088b94146103e1578063543cb81f1461040a5780635c975abb14610433576101fb565b806324600fc31461034b5780633f4ba83a1461036257806342842e0e14610379576101fb565b8063095ea7b311610195578063095ea7b3146102a55780631209b1f6146102ce57806315981650146102f957806323b872dd14610322576101fb565b806301ffc9a71461020057806306fdde031461023d578063081812fc14610268576101fb565b366101fb576040517f08c379a00000000000000000000000000000000000000000000000000000000081526004016101f290612641565b60405180910390fd5b600080fd5b34801561020c57600080fd5b50610227600480360381019061022291906126cd565b6106eb565b6040516102349190612715565b60405180910390f35b34801561024957600080fd5b506102526107cd565b60405161025f91906127af565b60405180910390f35b34801561027457600080fd5b5061028f600480360381019061028a9190612807565b61085f565b60405161029c9190612875565b60405180910390f35b3480156102b157600080fd5b506102cc60048036038101906102c791906128bc565b61087b565b005b3480156102da57600080fd5b506102e3610891565b6040516102f0919061290b565b60405180910390f35b34801561030557600080fd5b50610320600480360381019061031b9190612807565b610897565b005b34801561032e57600080fd5b5061034960048036038101906103449190612926565b6109c4565b005b34801561035757600080fd5b50610360610ac6565b005b34801561036e57600080fd5b50610377610c04565b005b34801561038557600080fd5b506103a0600480360381019061039b9190612926565b610cdd565b005b3480156103ae57600080fd5b506103c960048036038101906103c49190612807565b610cfd565b6040516103d893929190612979565b60405180910390f35b3480156103ed57600080fd5b5061040860048036038101906104039190612807565b610d54565b005b34801561041657600080fd5b50610431600480360381019061042c9190612807565b610e7a565b005b34801561043f57600080fd5b506104486110e5565b6040516104559190612715565b60405180910390f35b34801561046a57600080fd5b506104736110f8565b604051610480919061290b565b60405180910390f35b34801561049557600080fd5b506104b060048036038101906104ab9190612807565b6110fe565b6040516104bd9190612875565b60405180910390f35b3480156104d257600080fd5b506104ed60048036038101906104e891906129b0565b611110565b6040516104fa919061290b565b60405180910390f35b34801561050f57600080fd5b506105186111ca565b005b34801561052657600080fd5b5061052f6112a3565b60405161053c919061290b565b60405180910390f35b34801561055157600080fd5b5061055a61133d565b60405161056791906127af565b60405180910390f35b34801561057c57600080fd5b5061059760048036038101906105929190612a09565b6113cf565b005b3480156105a557600080fd5b506105c060048036038101906105bb9190612b7e565b6113e5565b005b3480156105ce57600080fd5b506105e960048036038101906105e49190612807565b611402565b6040516105f69190612715565b60405180910390f35b61061960048036038101906106149190612807565b6114eb565b005b34801561062757600080fd5b50610642600480360381019061063d9190612807565b611740565b60405161064f91906127af565b60405180910390f35b34801561066457600080fd5b5061067f600480360381019061067a9190612c01565b6117a9565b60405161068c9190612715565b60405180910390f35b3480156106a157600080fd5b506106aa61183d565b6040516106b79190612875565b60405180910390f35b3480156106cc57600080fd5b506106d5611863565b6040516106e2919061290b565b60405180910390f35b60007f80ac58cd000000000000000000000000000000000000000000000000000000007bffffffffffffffffffffffffffffffffffffffffffffffffffffffff1916827bffffffffffffffffffffffffffffffffffffffffffffffffffffffff191614806107b657507f5b5e139f000000000000000000000000000000000000000000000000000000007bffffffffffffffffffffffffffffffffffffffffffffffffffffffff1916827bffffffffffffffffffffffffffffffffffffffffffffffffffffffff1916145b806107c657506107c582611869565b5b9050919050565b6060600080546107dc90612c70565b80601f016020809104026020016040519081016040528092919081815260200182805461080890612c70565b80156108555780601f1061082a57610100808354040283529160200191610855565b820191906000526020600020905b81548152906001019060200180831161083857829003601f168201915b5050505050905090565b600061086a826118d3565b506108748261195b565b9050919050565b61088d8282610888611998565b6119a0565b5050565b60075481565b600860009054906101000a900473ffffffffffffffffffffffffffffffffffffffff1673ffffffffffffffffffffffffffffffffffffffff163373ffffffffffffffffffffffffffffffffffffffff1614610927576040517f08c379a000000000000000000000000000000000000000000000000000000000815260040161091e90612ced565b60405180910390fd5b600860149054906101000a900460ff1615610977576040517f08c379a000000000000000000000000000000000000000000000000000000000815260040161096e90612d59565b60405180910390fd5b600081116109ba576040517f08c379a00000000000000000000000000000000000000000000000000000000081526004016109b190612deb565b60405180910390fd5b8060078190555050565b600073ffffffffffffffffffffffffffffffffffffffff168273ffffffffffffffffffffffffffffffffffffffff1603610a365760006040517f64a0ae92000000000000000000000000000000000000000000000000000000008152600401610a2d9190612875565b60405180910390fd5b6000610a4a8383610a45611998565b6119b2565b90508373ffffffffffffffffffffffffffffffffffffffff168173ffffffffffffffffffffffffffffffffffffffff1614610ac0578382826040517f64283d7b000000000000000000000000000000000000000000000000000000008152600401610ab793929190612e0b565b60405180910390fd5b50505050565b600860009054906101000a900473ffffffffffffffffffffffffffffffffffffffff1673ffffffffffffffffffffffffffffffffffffffff163373ffffffffffffffffffffffffffffffffffffffff1614610b56576040517f08c379a0000000000000000000000000000000000000000000000000000000008152600401610b4d90612ced565b60405180910390fd5b60004711610b99576040517f08c379a0000000000000000000000000000000000000000000000000000000008152600401610b9090612e8e565b60405180910390fd5b600860009054906101000a900473ffffffffffffffffffffffffffffffffffffffff1673ffffffffffffffffffffffffffffffffffffffff166108fc479081150290604051600060405180830381858888f19350505050158015610c01573d6000803e3d6000fd5b50565b600860009054906101000a900473ffffffffffffffffffffffffffffffffffffffff1673ffffffffffffffffffffffffffffffffffffffff163373ffffffffffffffffffffffffffffffffffffffff1614610c94576040517f08c379a0000000000000000000000000000000000000000000000000000000008152600401610c8b90612ced565b60405180910390fd5b6000600860146101000a81548160ff0219169083151502179055507f0e5e3b3fb504c22cf5c42fa07d521225937514c654007e1f12646f89768d6f9460405160405180910390a1565b610cf8838383604051806020016040528060008152506113e5565b505050565b60096020528060005260406000206000915090508060000154908060010160009054906101000a900473ffffffffffffffffffffffffffffffffffffffff16908060010160149054906101000a900460ff16905083565b600860009054906101000a900473ffffffffffffffffffffffffffffffffffffffff1673ffffffffffffffffffffffffffffffffffffffff163373ffffffffffffffffffffffffffffffffffffffff1614610de4576040517f08c379a0000000000000000000000000000000000000000000000000000000008152600401610ddb90612ced565b60405180910390fd5b600860149054906101000a900460ff1615610e34576040517f08c379a0000000000000000000000000000000000000000000000000000000008152600401610e2b90612d59565b60405180910390fd5b60008111610e77576040517f08c379a0000000000000000000000000000000000000000000000000000000008152600401610e6e90612efa565b60405180910390fd5b50565b600860009054906101000a900473ffffffffffffffffffffffffffffffffffffffff1673ffffffffffffffffffffffffffffffffffffffff163373ffffffffffffffffffffffffffffffffffffffff1614610f0a576040517f08c379a0000000000000000000000000000000000000000000000000000000008152600401610f0190612ced565b60405180910390fd5b806006548110610f4f576040517f08c379a0000000000000000000000000000000000000000000000000000000008152600401610f4690612f66565b60405180910390fd5b813373ffffffffffffffffffffffffffffffffffffffff16610f70826110fe565b73ffffffffffffffffffffffffffffffffffffffff1614610fc6576040517f08c379a0000000000000000000000000000000000000000000000000000000008152600401610fbd90612fd2565b60405180910390fd5b600860149054906101000a900460ff1615611016576040517f08c379a000000000000000000000000000000000000000000000000000000000815260040161100d90612d59565b60405180910390fd5b6009600084815260200190815260200160002060010160149054906101000a900460ff161561107a576040517f08c379a00000000000000000000000000000000000000000000000000000000081526004016110719061303e565b60405180910390fd5b60016009600085815260200190815260200160002060010160146101000a81548160ff0219169083151502179055507f1f5d53e38fbc5a40092861e993062e74fb6dc7acef58356c7b55aa1afd8b3501836040516110d8919061290b565b60405180910390a1505050565b600860149054906101000a900460ff1681565b60065481565b6000611109826118d3565b9050919050565b60008073ffffffffffffffffffffffffffffffffffffffff168273ffffffffffffffffffffffffffffffffffffffff16036111835760006040517f89c62b6400000000000000000000000000000000000000000000000000000000815260040161117a9190612875565b60405180910390fd5b600360008373ffffffffffffffffffffffffffffffffffffffff1673ffffffffffffffffffffffffffffffffffffffff168152602001908152602001600020549050919050565b600860009054906101000a900473ffffffffffffffffffffffffffffffffffffffff1673ffffffffffffffffffffffffffffffffffffffff163373ffffffffffffffffffffffffffffffffffffffff161461125a576040517f08c379a000000000000000000000000000000000000000000000000000000000815260040161125190612ced565b60405180910390fd5b6001600860146101000a81548160ff0219169083151502179055507fab35696f06e428ebc5ceba8cd17f8fed287baf43440206d1943af1ee53e6d26760405160405180910390a1565b6000600860009054906101000a900473ffffffffffffffffffffffffffffffffffffffff1673ffffffffffffffffffffffffffffffffffffffff163373ffffffffffffffffffffffffffffffffffffffff1614611335576040517f08c379a000000000000000000000000000000000000000000000000000000000815260040161132c90612ced565b60405180910390fd5b600754905090565b60606001805461134c90612c70565b80601f016020809104026020016040519081016040528092919081815260200182805461137890612c70565b80156113c55780601f1061139a576101008083540402835291602001916113c5565b820191906000526020600020905b8154815290600101906020018083116113a857829003601f168201915b5050505050905090565b6113e16113da611998565b8383611bcc565b5050565b6113f08484846109c4565b6113fc84848484611d3b565b50505050565b6000816006548110611449576040517f08c379a000000000000000000000000000000000000000000000000000000000815260040161144090612f66565b60405180910390fd5b611452836110fe565b73ffffffffffffffffffffffffffffffffffffffff166009600085815260200190815260200160002060010160009054906101000a900473ffffffffffffffffffffffffffffffffffffffff1673ffffffffffffffffffffffffffffffffffffffff161480156114e357506009600084815260200190815260200160002060010160149054906101000a900460ff16155b915050919050565b600860149054906101000a900460ff161561153b576040517f08c379a000000000000000000000000000000000000000000000000000000000815260040161153290612d59565b60405180910390fd5b600754341461157f576040517f08c379a0000000000000000000000000000000000000000000000000000000008152600401611576906130aa565b60405180910390fd5b600081116115c2576040517f08c379a00000000000000000000000000000000000000000000000000000000081526004016115b990612efa565b60405180910390fd5b61271060065410611608576040517f08c379a00000000000000000000000000000000000000000000000000000000081526004016115ff90613116565b60405180910390fd5b600060065490506006600081548092919061162290613165565b91905055506116313382611ef2565b60405180606001604052808381526020013373ffffffffffffffffffffffffffffffffffffffff16815260200160001515815250600960008381526020019081526020016000206000820151816000015560208201518160010160006101000a81548173ffffffffffffffffffffffffffffffffffffffff021916908373ffffffffffffffffffffffffffffffffffffffff16021790555060408201518160010160146101000a81548160ff0219169083151502179055509050503373ffffffffffffffffffffffffffffffffffffffff167f2a91574e12ad96234e84923e146b0946ecfb871cd8d5534dc1fdcbe87a7c01b382846040516117349291906131ad565b60405180910390a25050565b606061174b826118d3565b506000611756611f10565b9050600081511161177657604051806020016040528060008152506117a1565b8061178084611f27565b604051602001611791929190613212565b6040516020818303038152906040525b915050919050565b6000600560008473ffffffffffffffffffffffffffffffffffffffff1673ffffffffffffffffffffffffffffffffffffffff16815260200190815260200160002060008373ffffffffffffffffffffffffffffffffffffffff1673ffffffffffffffffffffffffffffffffffffffff16815260200190815260200160002060009054906101000a900460ff16905092915050565b600860009054906101000a900473ffffffffffffffffffffffffffffffffffffffff1681565b61271081565b60007f01ffc9a7000000000000000000000000000000000000000000000000000000007bffffffffffffffffffffffffffffffffffffffffffffffffffffffff1916827bffffffffffffffffffffffffffffffffffffffffffffffffffffffff1916149050919050565b6000806118df83611ff5565b9050600073ffffffffffffffffffffffffffffffffffffffff168173ffffffffffffffffffffffffffffffffffffffff160361195257826040517f7e273289000000000000000000000000000000000000000000000000000000008152600401611949919061290b565b60405180910390fd5b80915050919050565b60006004600083815260200190815260200160002060009054906101000a900473ffffffffffffffffffffffffffffffffffffffff169050919050565b600033905090565b6119ad8383836001612032565b505050565b6000806119be84611ff5565b9050600073ffffffffffffffffffffffffffffffffffffffff168373ffffffffffffffffffffffffffffffffffffffff1614611a00576119ff8184866121f7565b5b600073ffffffffffffffffffffffffffffffffffffffff168173ffffffffffffffffffffffffffffffffffffffff1614611a9157611a42600085600080612032565b6001600360008373ffffffffffffffffffffffffffffffffffffffff1673ffffffffffffffffffffffffffffffffffffffff168152602001908152602001600020600082825403925050819055505b600073ffffffffffffffffffffffffffffffffffffffff168573ffffffffffffffffffffffffffffffffffffffff1614611b14576001600360008773ffffffffffffffffffffffffffffffffffffffff1673ffffffffffffffffffffffffffffffffffffffff168152602001908152602001600020600082825401925050819055505b846002600086815260200190815260200160002060006101000a81548173ffffffffffffffffffffffffffffffffffffffff021916908373ffffffffffffffffffffffffffffffffffffffff160217905550838573ffffffffffffffffffffffffffffffffffffffff168273ffffffffffffffffffffffffffffffffffffffff167fddf252ad1be2c89b69c2b068fc378daa952ba7f163c4a11628f55a4df523b3ef60405160405180910390a4809150509392505050565b600073ffffffffffffffffffffffffffffffffffffffff168273ffffffffffffffffffffffffffffffffffffffff1603611c3d57816040517f5b08ba18000000000000000000000000000000000000000000000000000000008152600401611c349190612875565b60405180910390fd5b80600560008573ffffffffffffffffffffffffffffffffffffffff1673ffffffffffffffffffffffffffffffffffffffff16815260200190815260200160002060008473ffffffffffffffffffffffffffffffffffffffff1673ffffffffffffffffffffffffffffffffffffffff16815260200190815260200160002060006101000a81548160ff0219169083151502179055508173ffffffffffffffffffffffffffffffffffffffff168373ffffffffffffffffffffffffffffffffffffffff167f17307eab39ab6107e8899845ad3d59bd9653f200f220920489ca2b5937696c3183604051611d2e9190612715565b60405180910390a3505050565b60008373ffffffffffffffffffffffffffffffffffffffff163b1115611eec578273ffffffffffffffffffffffffffffffffffffffff1663150b7a02611d7f611998565b8685856040518563ffffffff1660e01b8152600401611da1949392919061328b565b6020604051808303816000875af1925050508015611ddd57506040513d601f19601f82011682018060405250810190611dda91906132ec565b60015b611e61573d8060008114611e0d576040519150601f19603f3d011682016040523d82523d6000602084013e611e12565b606091505b506000815103611e5957836040517f64a0ae92000000000000000000000000000000000000000000000000000000008152600401611e509190612875565b60405180910390fd5b805181602001fd5b63150b7a0260e01b7bffffffffffffffffffffffffffffffffffffffffffffffffffffffff1916817bffffffffffffffffffffffffffffffffffffffffffffffffffffffff191614611eea57836040517f64a0ae92000000000000000000000000000000000000000000000000000000008152600401611ee19190612875565b60405180910390fd5b505b50505050565b611f0c8282604051806020016040528060008152506122bb565b5050565b606060405180602001604052806000815250905090565b606060006001611f36846122d7565b01905060008167ffffffffffffffff811115611f5557611f54612a53565b5b6040519080825280601f01601f191660200182016040528015611f875781602001600182028036833780820191505090505b509050600082602001820190505b600115611fea578080600190039150507f3031323334353637383961626364656600000000000000000000000000000000600a86061a8153600a8581611fde57611fdd613319565b5b04945060008503611f95575b819350505050919050565b60006002600083815260200190815260200160002060009054906101000a900473ffffffffffffffffffffffffffffffffffffffff169050919050565b808061206b5750600073ffffffffffffffffffffffffffffffffffffffff168273ffffffffffffffffffffffffffffffffffffffff1614155b1561219f57600061207b846118d3565b9050600073ffffffffffffffffffffffffffffffffffffffff168373ffffffffffffffffffffffffffffffffffffffff16141580156120e657508273ffffffffffffffffffffffffffffffffffffffff168173ffffffffffffffffffffffffffffffffffffffff1614155b80156120f957506120f781846117a9565b155b1561213b57826040517fa9fbf51f0000000000000000000000000000000000000000000000000000000081526004016121329190612875565b60405180910390fd5b811561219d57838573ffffffffffffffffffffffffffffffffffffffff168273ffffffffffffffffffffffffffffffffffffffff167f8c5be1e5ebec7d5bd14f71427d1e84f3dd0314c0f7b2291e5b200ac8c7c3b92560405160405180910390a45b505b836004600085815260200190815260200160002060006101000a81548173ffffffffffffffffffffffffffffffffffffffff021916908373ffffffffffffffffffffffffffffffffffffffff16021790555050505050565b61220283838361242a565b6122b657600073ffffffffffffffffffffffffffffffffffffffff168373ffffffffffffffffffffffffffffffffffffffff160361227757806040517f7e27328900000000000000000000000000000000000000000000000000000000815260040161226e919061290b565b60405180910390fd5b81816040517f177e802f0000000000000000000000000000000000000000000000000000000081526004016122ad929190613348565b60405180910390fd5b505050565b6122c583836124eb565b6122d26000848484611d3b565b505050565b600080600090507a184f03e93ff9f4daa797ed6e38ed64bf6a1f0100000000000000008310612335577a184f03e93ff9f4daa797ed6e38ed64bf6a1f010000000000000000838161232b5761232a613319565b5b0492506040810190505b6d04ee2d6d415b85acef81000000008310612372576d04ee2d6d415b85acef8100000000838161236857612367613319565b5b0492506020810190505b662386f26fc1000083106123a157662386f26fc10000838161239757612396613319565b5b0492506010810190505b6305f5e10083106123ca576305f5e10083816123c0576123bf613319565b5b0492506008810190505b61271083106123ef5761271083816123e5576123e4613319565b5b0492506004810190505b60648310612412576064838161240857612407613319565b5b0492506002810190505b600a8310612421576001810190505b80915050919050565b60008073ffffffffffffffffffffffffffffffffffffffff168373ffffffffffffffffffffffffffffffffffffffff16141580156124e257508273ffffffffffffffffffffffffffffffffffffffff168473ffffffffffffffffffffffffffffffffffffffff1614806124a357506124a284846117a9565b5b806124e157508273ffffffffffffffffffffffffffffffffffffffff166124c98361195b565b73ffffffffffffffffffffffffffffffffffffffff16145b5b90509392505050565b600073ffffffffffffffffffffffffffffffffffffffff168273ffffffffffffffffffffffffffffffffffffffff160361255d5760006040517f64a0ae920000000000000000000000000000000000000000000000000000000081526004016125549190612875565b60405180910390fd5b600061256b838360006119b2565b9050600073ffffffffffffffffffffffffffffffffffffffff168173ffffffffffffffffffffffffffffffffffffffff16146125df5760006040517f73c6ac6e0000000000000000000000000000000000000000000000000000000081526004016125d69190612875565b60405180910390fd5b505050565b600082825260208201905092915050565b7f5573652070757263686173655469636b65742066756e6374696f6e0000000000600082015250565b600061262b601b836125e4565b9150612636826125f5565b602082019050919050565b6000602082019050818103600083015261265a8161261e565b9050919050565b6000604051905090565b600080fd5b600080fd5b60007fffffffff0000000000000000000000000000000000000000000000000000000082169050919050565b6126aa81612675565b81146126b557600080fd5b50565b6000813590506126c7816126a1565b92915050565b6000602082840312156126e3576126e261266b565b5b60006126f1848285016126b8565b91505092915050565b60008115159050919050565b61270f816126fa565b82525050565b600060208201905061272a6000830184612706565b92915050565b600081519050919050565b60005b8381101561275957808201518184015260208101905061273e565b60008484015250505050565b6000601f19601f8301169050919050565b600061278182612730565b61278b81856125e4565b935061279b81856020860161273b565b6127a481612765565b840191505092915050565b600060208201905081810360008301526127c98184612776565b905092915050565b6000819050919050565b6127e4816127d1565b81146127ef57600080fd5b50565b600081359050612801816127db565b92915050565b60006020828403121561281d5761281c61266b565b5b600061282b848285016127f2565b91505092915050565b600073ffffffffffffffffffffffffffffffffffffffff82169050919050565b600061285f82612834565b9050919050565b61286f81612854565b82525050565b600060208201905061288a6000830184612866565b92915050565b61289981612854565b81146128a457600080fd5b50565b6000813590506128b681612890565b92915050565b600080604083850312156128d3576128d261266b565b5b60006128e1858286016128a7565b92505060206128f2858286016127f2565b9150509250929050565b612905816127d1565b82525050565b600060208201905061292060008301846128fc565b92915050565b60008060006060848603121561293f5761293e61266b565b5b600061294d868287016128a7565b935050602061295e868287016128a7565b925050604061296f868287016127f2565b9150509250925092565b600060608201905061298e60008301866128fc565b61299b6020830185612866565b6129a86040830184612706565b949350505050565b6000602082840312156129c6576129c561266b565b5b60006129d4848285016128a7565b91505092915050565b6129e6816126fa565b81146129f157600080fd5b50565b600081359050612a03816129dd565b92915050565b60008060408385031215612a2057612a1f61266b565b5b6000612a2e858286016128a7565b9250506020612a3f858286016129f4565b9150509250929050565b600080fd5b600080fd5b7f4e487b7100000000000000000000000000000000000000000000000000000000600052604160045260246000fd5b612a8b82612765565b810181811067ffffffffffffffff82111715612aaa57612aa9612a53565b5b80604052505050565b6000612abd612661565b9050612ac98282612a82565b919050565b600067ffffffffffffffff821115612ae957612ae8612a53565b5b612af282612765565b9050602081019050919050565b82818337600083830152505050565b6000612b21612b1c84612ace565b612ab3565b905082815260208101848484011115612b3d57612b3c612a4e565b5b612b48848285612aff565b509392505050565b600082601f830112612b6557612b64612a49565b5b8135612b75848260208601612b0e565b91505092915050565b60008060008060808587031215612b9857612b9761266b565b5b6000612ba6878288016128a7565b9450506020612bb7878288016128a7565b9350506040612bc8878288016127f2565b925050606085013567ffffffffffffffff811115612be957612be8612670565b5b612bf587828801612b50565b91505092959194509250565b60008060408385031215612c1857612c1761266b565b5b6000612c26858286016128a7565b9250506020612c37858286016128a7565b9150509250929050565b7f4e487b7100000000000000000000000000000000000000000000000000000000600052602260045260246000fd5b60006002820490506001821680612c8857607f821691505b602082108103612c9b57612c9a612c41565b5b50919050565b7f43616c6c6572206973206e6f74207468652061646d696e000000000000000000600082015250565b6000612cd76017836125e4565b9150612ce282612ca1565b602082019050919050565b60006020820190508181036000830152612d0681612cca565b9050919050565b7f436f6e7472616374206973207061757365640000000000000000000000000000600082015250565b6000612d436012836125e4565b9150612d4e82612d0d565b602082019050919050565b60006020820190508181036000830152612d7281612d36565b9050919050565b7f5469636b6574207072696365206d75737420626520677265617465722074686160008201527f6e20300000000000000000000000000000000000000000000000000000000000602082015250565b6000612dd56023836125e4565b9150612de082612d79565b604082019050919050565b60006020820190508181036000830152612e0481612dc8565b9050919050565b6000606082019050612e206000830186612866565b612e2d60208301856128fc565b612e3a6040830184612866565b949350505050565b7f4e6f2066756e647320746f207769746864726177000000000000000000000000600082015250565b6000612e786014836125e4565b9150612e8382612e42565b602082019050919050565b60006020820190508181036000830152612ea781612e6b565b9050919050565b7f496e76616c6964206d6174636820494400000000000000000000000000000000600082015250565b6000612ee46010836125e4565b9150612eef82612eae565b602082019050919050565b60006020820190508181036000830152612f1381612ed7565b9050919050565b7f5469636b657420646f6573206e6f742065786973740000000000000000000000600082015250565b6000612f506015836125e4565b9150612f5b82612f1a565b602082019050919050565b60006020820190508181036000830152612f7f81612f43565b9050919050565b7f596f7520646f206e6f74206f776e2074686973207469636b6574000000000000600082015250565b6000612fbc601a836125e4565b9150612fc782612f86565b602082019050919050565b60006020820190508181036000830152612feb81612faf565b9050919050565b7f5469636b65742068617320616c7265616479206265656e207573656400000000600082015250565b6000613028601c836125e4565b915061303382612ff2565b602082019050919050565b600060208201905081810360008301526130578161301b565b9050919050565b7f496e636f72726563742045746865722073656e74000000000000000000000000600082015250565b60006130946014836125e4565b915061309f8261305e565b602082019050919050565b600060208201905081810360008301526130c381613087565b9050919050565b7f4d6178207469636b6574206c696d697420726561636865640000000000000000600082015250565b60006131006018836125e4565b915061310b826130ca565b602082019050919050565b6000602082019050818103600083015261312f816130f3565b9050919050565b7f4e487b7100000000000000000000000000000000000000000000000000000000600052601160045260246000fd5b6000613170826127d1565b91507fffffffffffffffffffffffffffffffffffffffffffffffffffffffffffffffff82036131a2576131a1613136565b5b600182019050919050565b60006040820190506131c260008301856128fc565b6131cf60208301846128fc565b9392505050565b600081905092915050565b60006131ec82612730565b6131f681856131d6565b935061320681856020860161273b565b80840191505092915050565b600061321e82856131e1565b915061322a82846131e1565b91508190509392505050565b600081519050919050565b600082825260208201905092915050565b600061325d82613236565b6132678185613241565b935061327781856020860161273b565b61328081612765565b840191505092915050565b60006080820190506132a06000830187612866565b6132ad6020830186612866565b6132ba60408301856128fc565b81810360608301526132cc8184613252565b905095945050505050565b6000815190506132e6816126a1565b92915050565b6000602082840312156133025761330161266b565b5b6000613310848285016132d7565b91505092915050565b7f4e487b7100000000000000000000000000000000000000000000000000000000600052601260045260246000fd5b600060408201905061335d6000830185612866565b61336a60208301846128fc565b939250505056fea2646970667358221220aa9a98a91b2360fec24c851768f1695a287c19d827d5608705f0a02051e9ad7164736f6c63430008180033",
  "linkReferences": {},
  "deployedLinkReferences": {}
}